{
  "contractName": "Badge",
  "abi": [
    {
      "constant": true,
      "inputs": [],
      "name": "owner",
      "outputs": [
        {
          "name": "",
          "type": "address"
        }
      ],
      "payable": false,
      "stateMutability": "view",
      "type": "function"
    },
    {
      "inputs": [],
      "payable": false,
      "stateMutability": "nonpayable",
      "type": "constructor"
    },
    {
      "anonymous": false,
      "inputs": [
        {
          "indexed": false,
          "name": "to",
          "type": "address"
        },
        {
          "indexed": false,
          "name": "id",
          "type": "uint256"
        },
        {
          "indexed": false,
          "name": "name",
          "type": "string"
        }
      ],
      "name": "NewBadgeIssued",
      "type": "event"
    },
    {
      "constant": false,
      "inputs": [
        {
          "name": "_name",
          "type": "string"
        },
        {
          "name": "_url",
          "type": "string"
        },
        {
          "name": "_organization",
          "type": "string"
        },
        {
          "name": "_address",
          "type": "address"
        }
      ],
      "name": "newIssuer",
      "outputs": [],
      "payable": false,
      "stateMutability": "nonpayable",
      "type": "function"
    },
    {
      "constant": false,
      "inputs": [
        {
          "name": "_addr",
          "type": "address"
        }
      ],
      "name": "revokeIssuer",
      "outputs": [],
      "payable": false,
      "stateMutability": "nonpayable",
      "type": "function"
    },
    {
      "constant": false,
      "inputs": [
        {
          "name": "_to",
          "type": "address"
        },
        {
          "name": "_name",
          "type": "string"
        },
        {
          "name": "_description",
          "type": "string"
        },
        {
          "name": "_awardee",
          "type": "string"
        },
        {
          "name": "_assertion",
          "type": "string"
        },
        {
          "name": "_criteria",
          "type": "string"
        },
        {
          "name": "_image",
          "type": "string"
        }
      ],
      "name": "newBadge",
      "outputs": [],
      "payable": false,
      "stateMutability": "nonpayable",
      "type": "function"
    },
    {
      "constant": true,
      "inputs": [
        {
          "name": "_name",
          "type": "string"
        },
        {
          "name": "_description",
          "type": "string"
        },
        {
          "name": "_awardee",
          "type": "string"
        },
        {
          "name": "_assertion",
          "type": "string"
        },
        {
          "name": "_criteria",
          "type": "string"
        },
        {
          "name": "_timeRegister",
          "type": "uint256"
        }
      ],
      "name": "generateBadgeId",
      "outputs": [
        {
          "name": "",
          "type": "uint256"
        }
      ],
      "payable": false,
      "stateMutability": "pure",
      "type": "function"
    }
  ],
  "bytecode": "0x608060405234801561001057600080fd5b50336000806101000a81548173ffffffffffffffffffffffffffffffffffffffff021916908373ffffffffffffffffffffffffffffffffffffffff1602179055506112d4806100606000396000f3fe608060405234801561001057600080fd5b50600436106100565760003560e01c80626296791461005b57806304eff4901461009f57806322850bd5146102a85780638da5cb5b14610676578063e1435e97146106c0575b600080fd5b61009d6004803603602081101561007157600080fd5b81019080803573ffffffffffffffffffffffffffffffffffffffff1690602001909291905050506109f5565b005b6102a6600480360360808110156100b557600080fd5b81019080803590602001906401000000008111156100d257600080fd5b8201836020820111156100e457600080fd5b8035906020019184600183028401116401000000008311171561010657600080fd5b91908080601f016020809104026020016040519081016040528093929190818152602001838380828437600081840152601f19601f8201169050808301925050505050505091929192908035906020019064010000000081111561016957600080fd5b82018360208201111561017b57600080fd5b8035906020019184600183028401116401000000008311171561019d57600080fd5b91908080601f016020809104026020016040519081016040528093929190818152602001838380828437600081840152601f19601f8201169050808301925050505050505091929192908035906020019064010000000081111561020057600080fd5b82018360208201111561021257600080fd5b8035906020019184600183028401116401000000008311171561023457600080fd5b91908080601f016020809104026020016040519081016040528093929190818152602001838380828437600081840152601f19601f820116905080830192505050505050509192919290803573ffffffffffffffffffffffffffffffffffffffff169060200190929190505050610a9d565b005b610674600480360360e08110156102be57600080fd5b81019080803573ffffffffffffffffffffffffffffffffffffffff169060200190929190803590602001906401000000008111156102fb57600080fd5b82018360208201111561030d57600080fd5b8035906020019184600183028401116401000000008311171561032f57600080fd5b91908080601f016020809104026020016040519081016040528093929190818152602001838380828437600081840152601f19601f8201169050808301925050505050505091929192908035906020019064010000000081111561039257600080fd5b8201836020820111156103a457600080fd5b803590602001918460018302840111640100000000831117156103c657600080fd5b91908080601f016020809104026020016040519081016040528093929190818152602001838380828437600081840152601f19601f8201169050808301925050505050505091929192908035906020019064010000000081111561042957600080fd5b82018360208201111561043b57600080fd5b8035906020019184600183028401116401000000008311171561045d57600080fd5b91908080601f016020809104026020016040519081016040528093929190818152602001838380828437600081840152601f19601f820116905080830192505050505050509192919290803590602001906401000000008111156104c057600080fd5b8201836020820111156104d257600080fd5b803590602001918460018302840111640100000000831117156104f457600080fd5b91908080601f016020809104026020016040519081016040528093929190818152602001838380828437600081840152601f19601f8201169050808301925050505050505091929192908035906020019064010000000081111561055757600080fd5b82018360208201111561056957600080fd5b8035906020019184600183028401116401000000008311171561058b57600080fd5b91908080601f016020809104026020016040519081016040528093929190818152602001838380828437600081840152601f19601f820116905080830192505050505050509192919290803590602001906401000000008111156105ee57600080fd5b82018360208201111561060057600080fd5b8035906020019184600183028401116401000000008311171561062257600080fd5b91908080601f016020809104026020016040519081016040528093929190818152602001838380828437600081840152601f19601f820116905080830192505050505050509192919290505050610c59565b005b61067e610f56565b604051808273ffffffffffffffffffffffffffffffffffffffff1673ffffffffffffffffffffffffffffffffffffffff16815260200191505060405180910390f35b6109df600480360360c08110156106d657600080fd5b81019080803590602001906401000000008111156106f357600080fd5b82018360208201111561070557600080fd5b8035906020019184600183028401116401000000008311171561072757600080fd5b91908080601f016020809104026020016040519081016040528093929190818152602001838380828437600081840152601f19601f8201169050808301925050505050505091929192908035906020019064010000000081111561078a57600080fd5b82018360208201111561079c57600080fd5b803590602001918460018302840111640100000000831117156107be57600080fd5b91908080601f016020809104026020016040519081016040528093929190818152602001838380828437600081840152601f19601f8201169050808301925050505050505091929192908035906020019064010000000081111561082157600080fd5b82018360208201111561083357600080fd5b8035906020019184600183028401116401000000008311171561085557600080fd5b91908080601f016020809104026020016040519081016040528093929190818152602001838380828437600081840152601f19601f820116905080830192505050505050509192919290803590602001906401000000008111156108b857600080fd5b8201836020820111156108ca57600080fd5b803590602001918460018302840111640100000000831117156108ec57600080fd5b91908080601f016020809104026020016040519081016040528093929190818152602001838380828437600081840152601f19601f8201169050808301925050505050505091929192908035906020019064010000000081111561094f57600080fd5b82018360208201111561096157600080fd5b8035906020019184600183028401116401000000008311171561098357600080fd5b91908080601f016020809104026020016040519081016040528093929190818152602001838380828437600081840152601f19601f82011690508083019250505050505050919291929080359060200190929190505050610f7b565b6040518082815260200191505060405180910390f35b3373ffffffffffffffffffffffffffffffffffffffff166000809054906101000a900473ffffffffffffffffffffffffffffffffffffffff1673ffffffffffffffffffffffffffffffffffffffff1614610a9a576040517f08c379a000000000000000000000000000000000000000000000000000000000815260040180806020018281038252602581526020018061127b6025913960400191505060405180910390fd5b50565b3373ffffffffffffffffffffffffffffffffffffffff166000809054906101000a900473ffffffffffffffffffffffffffffffffffffffff1673ffffffffffffffffffffffffffffffffffffffff1614610b42576040517f08c379a000000000000000000000000000000000000000000000000000000000815260040180806020018281038252602581526020018061127b6025913960400191505060405180910390fd5b610b4a611152565b60405180608001604052808681526020018581526020018481526020018373ffffffffffffffffffffffffffffffffffffffff168152509050600181908060018154018082558091505090600182039060005260206000209060040201600090919290919091506000820151816000019080519060200190610bcd929190611190565b506020820151816001019080519060200190610bea929190611190565b506040820151816002019080519060200190610c07929190611190565b5060608201518160030160006101000a81548173ffffffffffffffffffffffffffffffffffffffff021916908373ffffffffffffffffffffffffffffffffffffffff1602179055505050505050505050565b3373ffffffffffffffffffffffffffffffffffffffff166000809054906101000a900473ffffffffffffffffffffffffffffffffffffffff1673ffffffffffffffffffffffffffffffffffffffff161415610d1c576040517f08c379a00000000000000000000000000000000000000000000000000000000081526004018080602001828103825260208152602001807f6f776e6572206e6f7420657865637574652074686973206f7065726174696f6e81525060200191505060405180910390fd5b60004290506000610d31888888888887610f7b565b9050610d3b611210565b6040518061010001604052808381526020018a815260200189815260200188815260200187815260200186815260200185815260200184815250905060028190806001815401808255809150509060018203906000526020600020906008020160009091929091909150600082015181600001556020820151816001019080519060200190610dcb929190611190565b506040820151816002019080519060200190610de8929190611190565b506060820151816003019080519060200190610e05929190611190565b506080820151816004019080519060200190610e22929190611190565b5060a0820151816005019080519060200190610e3f929190611190565b5060c0820151816006019080519060200190610e5c929190611190565b5060e082015181600701555050507f66bd6e027b88a3a61224d187e2b01cd9e738d6588fdab427efb22c5d6f484f0c8a82600001518360200151604051808473ffffffffffffffffffffffffffffffffffffffff1673ffffffffffffffffffffffffffffffffffffffff16815260200183815260200180602001828103825283818151815260200191508051906020019080838360005b83811015610f0e578082015181840152602081019050610ef3565b50505050905090810190601f168015610f3b5780820380516001836020036101000a031916815260200191505b5094505050505060405180910390a150505050505050505050565b6000809054906101000a900473ffffffffffffffffffffffffffffffffffffffff1681565b60008686868686866040516020018087805190602001908083835b60208310610fb95780518252602082019150602081019050602083039250610f96565b6001836020036101000a03801982511681845116808217855250505050505090500186805190602001908083835b6020831061100a5780518252602082019150602081019050602083039250610fe7565b6001836020036101000a03801982511681845116808217855250505050505090500185805190602001908083835b6020831061105b5780518252602082019150602081019050602083039250611038565b6001836020036101000a03801982511681845116808217855250505050505090500184805190602001908083835b602083106110ac5780518252602082019150602081019050602083039250611089565b6001836020036101000a03801982511681845116808217855250505050505090500183805190602001908083835b602083106110fd57805182526020820191506020810190506020830392506110da565b6001836020036101000a03801982511681845116808217855250505050505090500182815260200196505050505050506040516020818303038152906040528051906020012060001c90509695505050505050565b6040518060800160405280606081526020016060815260200160608152602001600073ffffffffffffffffffffffffffffffffffffffff1681525090565b828054600181600116156101000203166002900490600052602060002090601f016020900481019282601f106111d157805160ff19168380011785556111ff565b828001600101855582156111ff579182015b828111156111fe5782518255916020019190600101906111e3565b5b50905061120c9190611255565b5090565b60405180610100016040528060008152602001606081526020016060815260200160608152602001606081526020016060815260200160608152602001600081525090565b61127791905b8082111561127357600081600090555060010161125b565b5090565b9056fe6f6e6c79206f776e65722063616e20657865637574652074686973206f7065726174696f6ea265627a7a72305820a031f6086fcb5f699d2de8bf762f942d2175bf5d58d9f792e6a557f0791f867564736f6c63430005090032",
  "source": "pragma solidity ^0.5.9;\r\n\r\ncontract Badge {\r\n\r\n    address payable public owner;\r\n\r\n    struct Issuer {\r\n\r\n        string name;\r\n        string url;\r\n        string organization;\r\n        address addr;\r\n\r\n    }\r\n\r\n    struct Badge {\r\n\r\n        uint id;\r\n        string name;\r\n        string description;\r\n        string awardee;\r\n        string assertion;\r\n        string criteria;\r\n        string image;\r\n        uint registeredAt;\r\n\r\n    }\r\n\r\n    Issuer[] private issuers;\r\n    Badge[] private badges;\r\n\r\n    mapping(address => Badge[]) badgesByAddressAwardee;\r\n    mapping(address => bool) issuersAuthorized;\r\n    mapping(uint => uint) indexedPositionIssuersById;\r\n\r\n\r\n    /*Events*/\r\n    event NewBadgeIssued(address to, uint id, string name);\r\n\r\n\r\n\r\n    constructor () public{\r\n        owner = msg.sender;\r\n    }\r\n\r\n\r\n    modifier onlyOwner() {\r\n        require(owner == msg.sender, 'only owner can execute this operation');\r\n        _;\r\n    }\r\n\r\n    modifier exceptOwner() {\r\n        require(owner != msg.sender, 'owner not execute this operation');\r\n        _;\r\n    }\r\n\r\n    //modifier isNotOwner\r\n\r\n\r\n    function newIssuer(string memory _name, string memory _url, string memory _organization, address _address) onlyOwner() public {\r\n\r\n        Issuer memory newIssuer = Issuer({\r\n            name: _name,\r\n            url: _url,\r\n            organization: _organization,\r\n            addr: _address\r\n        });\r\n\r\n        issuers.push(newIssuer);\r\n    }\r\n\r\n    function revokeIssuer(address _addr) public onlyOwner() {\r\n\r\n    }\r\n\r\n    function newBadge(address _to, string memory _name, string memory _description,\r\n        string memory _awardee, string memory _assertion, string memory _criteria, string memory _image) public exceptOwner() {\r\n\r\n\r\n        uint _now = now;\r\n        uint _id = generateBadgeId(_name, _description, _awardee, _assertion, _criteria, _now);\r\n\r\n        Badge memory badge = Badge({\r\n            id: _id,\r\n            name: _name,\r\n            description: _description,\r\n            awardee: _awardee,\r\n            assertion: _assertion,\r\n            criteria: _criteria,\r\n            image: _image,\r\n            registeredAt: _now\r\n        });\r\n\r\n        badges.push(badge);\r\n        //badgesByAddressAwardee[_to];\r\n\r\n\r\n        emit NewBadgeIssued(_to, badge.id, badge.name);\r\n\r\n    }\r\n\r\n\r\n\r\n    /*Utils*/\r\n    function generateBadgeId(string memory _name, string memory _description, string memory _awardee,\r\n        string memory _assertion, string memory _criteria, uint _timeRegister) public pure returns(uint) {\r\n\r\n        return uint(keccak256(abi.encodePacked(_name, _description, _awardee, _assertion, _criteria, _timeRegister)));\r\n    }\r\n}",
  "sourcePath": "c:/Desenv/JC Bombardelli/badge/smartcontract/contracts/Badge.sol",
  "compiler": {
    "name": "solc",
    "version": "0.5.9+commit.e560f70d.Emscripten.clang"
  },
  "schemaVersion": "3.0.11",
  "updatedAt": "2019-07-24T20:44:36.079Z",
  "devdoc": {
    "methods": {}
  },
  "userdoc": {
    "methods": {}
  }
}